{
  "_format": "hh-sol-artifact-1",
  "contractName": "Crowdfunding",
  "sourceName": "contracts/Crowdfunding.sol",
  "abi": [
    {
      "inputs": [
        {
          "internalType": "uint256",
          "name": "",
          "type": "uint256"
        }
      ],
      "name": "campaigns",
      "outputs": [
        {
          "internalType": "address",
          "name": "owner",
          "type": "address"
        },
        {
          "internalType": "string",
          "name": "title",
          "type": "string"
        },
        {
          "internalType": "string",
          "name": "description",
          "type": "string"
        },
        {
          "internalType": "uint256",
          "name": "target",
          "type": "uint256"
        },
        {
          "internalType": "uint256",
          "name": "deadline",
          "type": "uint256"
        },
        {
          "internalType": "uint256",
          "name": "amountCollected",
          "type": "uint256"
        },
        {
          "internalType": "string",
          "name": "image",
          "type": "string"
        }
      ],
      "stateMutability": "view",
      "type": "function"
    },
    {
      "inputs": [
        {
          "internalType": "address",
          "name": "_owner",
          "type": "address"
        },
        {
          "internalType": "string",
          "name": "_title",
          "type": "string"
        },
        {
          "internalType": "string",
          "name": "_description",
          "type": "string"
        },
        {
          "internalType": "uint256",
          "name": "_target",
          "type": "uint256"
        },
        {
          "internalType": "uint256",
          "name": "_deadline",
          "type": "uint256"
        },
        {
          "internalType": "string",
          "name": "_image",
          "type": "string"
        }
      ],
      "name": "createCampaign",
      "outputs": [
        {
          "internalType": "uint256",
          "name": "",
          "type": "uint256"
        }
      ],
      "stateMutability": "nonpayable",
      "type": "function"
    },
    {
      "inputs": [
        {
          "internalType": "uint256",
          "name": "_id",
          "type": "uint256"
        }
      ],
      "name": "donateToCampaign",
      "outputs": [],
      "stateMutability": "payable",
      "type": "function"
    },
    {
      "inputs": [],
      "name": "getAllCampaigns",
      "outputs": [
        {
          "components": [
            {
              "internalType": "address",
              "name": "owner",
              "type": "address"
            },
            {
              "internalType": "string",
              "name": "title",
              "type": "string"
            },
            {
              "internalType": "string",
              "name": "description",
              "type": "string"
            },
            {
              "internalType": "uint256",
              "name": "target",
              "type": "uint256"
            },
            {
              "internalType": "uint256",
              "name": "deadline",
              "type": "uint256"
            },
            {
              "internalType": "uint256",
              "name": "amountCollected",
              "type": "uint256"
            },
            {
              "internalType": "string",
              "name": "image",
              "type": "string"
            },
            {
              "internalType": "address[]",
              "name": "donators",
              "type": "address[]"
            },
            {
              "internalType": "uint256[]",
              "name": "donations",
              "type": "uint256[]"
            }
          ],
          "internalType": "struct Crowdfunding.Campaign[]",
          "name": "",
          "type": "tuple[]"
        }
      ],
      "stateMutability": "view",
      "type": "function"
    },
    {
      "inputs": [
        {
          "internalType": "uint256",
          "name": "_id",
          "type": "uint256"
        }
      ],
      "name": "getAllDonators",
      "outputs": [
        {
          "internalType": "address[]",
          "name": "",
          "type": "address[]"
        },
        {
          "internalType": "uint256[]",
          "name": "",
          "type": "uint256[]"
        }
      ],
      "stateMutability": "view",
      "type": "function"
    },
    {
      "inputs": [],
      "name": "numberOfCampaings",
      "outputs": [
        {
          "internalType": "uint256",
          "name": "",
          "type": "uint256"
        }
      ],
      "stateMutability": "view",
      "type": "function"
    }
  ],
  "bytecode": "0x6080604052600060015534801561001557600080fd5b50611a85806100256000396000f3fe6080604052600436106100555760003560e01c8063141961bc1461005a57806342a4fda81461009d5780637322134d146100b957806386cdf604146100e45780639943e3a11461010f578063e27883fb1461014c575b600080fd5b34801561006657600080fd5b50610081600480360381019061007c9190610c25565b61018a565b6040516100949796959493929190610d32565b60405180910390f35b6100b760048036038101906100b29190610c25565b610384565b005b3480156100c557600080fd5b506100ce610566565b6040516100db9190610db6565b60405180910390f35b3480156100f057600080fd5b506100f961056c565b604051610106919061113a565b60405180910390f35b34801561011b57600080fd5b50610136600480360381019061013191906112bd565b610942565b6040516101439190610db6565b60405180910390f35b34801561015857600080fd5b50610173600480360381019061016e9190610c25565b610a69565b60405161018192919061147c565b60405180910390f35b60006020528060005260406000206000915090508060000160009054906101000a900473ffffffffffffffffffffffffffffffffffffffff16908060010180546101d3906114e2565b80601f01602080910402602001604051908101604052809291908181526020018280546101ff906114e2565b801561024c5780601f106102215761010080835404028352916020019161024c565b820191906000526020600020905b81548152906001019060200180831161022f57829003601f168201915b505050505090806002018054610261906114e2565b80601f016020809104026020016040519081016040528092919081815260200182805461028d906114e2565b80156102da5780601f106102af576101008083540402835291602001916102da565b820191906000526020600020905b8154815290600101906020018083116102bd57829003601f168201915b505050505090806003015490806004015490806005015490806006018054610301906114e2565b80601f016020809104026020016040519081016040528092919081815260200182805461032d906114e2565b801561037a5780601f1061034f5761010080835404028352916020019161037a565b820191906000526020600020905b81548152906001019060200180831161035d57829003601f168201915b5050505050905087565b60003490506000806000848152602001908152602001600020905080600701339080600181540180825580915050600190039060005260206000200160009091909190916101000a81548173ffffffffffffffffffffffffffffffffffffffff021916908373ffffffffffffffffffffffffffffffffffffffff1602179055508060080182908060018154018082558091505060019003906000526020600020016000909190919091505560008160000160009054906101000a900473ffffffffffffffffffffffffffffffffffffffff1673ffffffffffffffffffffffffffffffffffffffff168360405161047990611544565b60006040518083038185875af1925050503d80600081146104b6576040519150601f19603f3d011682016040523d82523d6000602084013e6104bb565b606091505b50509050806104ff576040517f08c379a00000000000000000000000000000000000000000000000000000000081526004016104f6906115a5565b60405180910390fd5b8015610525578282600501600082825461051991906115f4565b92505081905550610560565b6040517f08c379a000000000000000000000000000000000000000000000000000000000815260040161055790611674565b60405180910390fd5b50505050565b60015481565b6060600060015467ffffffffffffffff81111561058c5761058b611192565b5b6040519080825280602002602001820160405280156105c557816020015b6105b2610b79565b8152602001906001900390816105aa5790505b50905060005b60015481101561093a576000806000838152602001908152602001600020905080604051806101200160405290816000820160009054906101000a900473ffffffffffffffffffffffffffffffffffffffff1673ffffffffffffffffffffffffffffffffffffffff1673ffffffffffffffffffffffffffffffffffffffff16815260200160018201805461065e906114e2565b80601f016020809104026020016040519081016040528092919081815260200182805461068a906114e2565b80156106d75780601f106106ac576101008083540402835291602001916106d7565b820191906000526020600020905b8154815290600101906020018083116106ba57829003601f168201915b505050505081526020016002820180546106f0906114e2565b80601f016020809104026020016040519081016040528092919081815260200182805461071c906114e2565b80156107695780601f1061073e57610100808354040283529160200191610769565b820191906000526020600020905b81548152906001019060200180831161074c57829003601f168201915b505050505081526020016003820154815260200160048201548152602001600582015481526020016006820180546107a0906114e2565b80601f01602080910402602001604051908101604052809291908181526020018280546107cc906114e2565b80156108195780601f106107ee57610100808354040283529160200191610819565b820191906000526020600020905b8154815290600101906020018083116107fc57829003601f168201915b50505050508152602001600782018054806020026020016040519081016040528092919081815260200182805480156108a757602002820191906000526020600020905b8160009054906101000a900473ffffffffffffffffffffffffffffffffffffffff1673ffffffffffffffffffffffffffffffffffffffff168152602001906001019080831161085d575b50505050508152602001600882018054806020026020016040519081016040528092919081815260200182805480156108ff57602002820191906000526020600020905b8154815260200190600101908083116108eb575b50505050508152505083838151811061091b5761091a611694565b5b6020026020010181905250508080610932906116c3565b9150506105cb565b508091505090565b60008060008060015481526020019081526020016000209050428160040154106109a1576040517f08c379a00000000000000000000000000000000000000000000000000000000081526004016109989061177d565b60405180910390fd5b878160000160006101000a81548173ffffffffffffffffffffffffffffffffffffffff021916908373ffffffffffffffffffffffffffffffffffffffff160217905550868160010190816109f59190611949565b5085816002019081610a079190611949565b508481600301819055508381600401819055506000816005018190555082816006019081610a359190611949565b5060016000815480929190610a49906116c3565b919050555060018054610a5c9190611a1b565b9150509695505050505050565b60608060008084815260200190815260200160002060070160008085815260200190815260200160002060080181805480602002602001604051908101604052809291908181526020018280548015610b1757602002820191906000526020600020905b8160009054906101000a900473ffffffffffffffffffffffffffffffffffffffff1673ffffffffffffffffffffffffffffffffffffffff1681526020019060010190808311610acd575b5050505050915080805480602002602001604051908101604052809291908181526020018280548015610b6957602002820191906000526020600020905b815481526020019060010190808311610b55575b5050505050905091509150915091565b604051806101200160405280600073ffffffffffffffffffffffffffffffffffffffff16815260200160608152602001606081526020016000815260200160008152602001600081526020016060815260200160608152602001606081525090565b6000604051905090565b600080fd5b600080fd5b6000819050919050565b610c0281610bef565b8114610c0d57600080fd5b50565b600081359050610c1f81610bf9565b92915050565b600060208284031215610c3b57610c3a610be5565b5b6000610c4984828501610c10565b91505092915050565b600073ffffffffffffffffffffffffffffffffffffffff82169050919050565b6000610c7d82610c52565b9050919050565b610c8d81610c72565b82525050565b600081519050919050565b600082825260208201905092915050565b60005b83811015610ccd578082015181840152602081019050610cb2565b60008484015250505050565b6000601f19601f8301169050919050565b6000610cf582610c93565b610cff8185610c9e565b9350610d0f818560208601610caf565b610d1881610cd9565b840191505092915050565b610d2c81610bef565b82525050565b600060e082019050610d47600083018a610c84565b8181036020830152610d598189610cea565b90508181036040830152610d6d8188610cea565b9050610d7c6060830187610d23565b610d896080830186610d23565b610d9660a0830185610d23565b81810360c0830152610da88184610cea565b905098975050505050505050565b6000602082019050610dcb6000830184610d23565b92915050565b600081519050919050565b600082825260208201905092915050565b6000819050602082019050919050565b610e0681610c72565b82525050565b600082825260208201905092915050565b6000610e2882610c93565b610e328185610e0c565b9350610e42818560208601610caf565b610e4b81610cd9565b840191505092915050565b610e5f81610bef565b82525050565b600081519050919050565b600082825260208201905092915050565b6000819050602082019050919050565b6000610e9d8383610dfd565b60208301905092915050565b6000602082019050919050565b6000610ec182610e65565b610ecb8185610e70565b9350610ed683610e81565b8060005b83811015610f07578151610eee8882610e91565b9750610ef983610ea9565b925050600181019050610eda565b5085935050505092915050565b600081519050919050565b600082825260208201905092915050565b6000819050602082019050919050565b6000610f4c8383610e56565b60208301905092915050565b6000602082019050919050565b6000610f7082610f14565b610f7a8185610f1f565b9350610f8583610f30565b8060005b83811015610fb6578151610f9d8882610f40565b9750610fa883610f58565b925050600181019050610f89565b5085935050505092915050565b600061012083016000830151610fdc6000860182610dfd565b5060208301518482036020860152610ff48282610e1d565b9150506040830151848203604086015261100e8282610e1d565b91505060608301516110236060860182610e56565b5060808301516110366080860182610e56565b5060a083015161104960a0860182610e56565b5060c083015184820360c08601526110618282610e1d565b91505060e083015184820360e086015261107b8282610eb6565b9150506101008301518482036101008601526110978282610f65565b9150508091505092915050565b60006110b08383610fc3565b905092915050565b6000602082019050919050565b60006110d082610dd1565b6110da8185610ddc565b9350836020820285016110ec85610ded565b8060005b85811015611128578484038952815161110985826110a4565b9450611114836110b8565b925060208a019950506001810190506110f0565b50829750879550505050505092915050565b6000602082019050818103600083015261115481846110c5565b905092915050565b61116581610c72565b811461117057600080fd5b50565b6000813590506111828161115c565b92915050565b600080fd5b600080fd5b7f4e487b7100000000000000000000000000000000000000000000000000000000600052604160045260246000fd5b6111ca82610cd9565b810181811067ffffffffffffffff821117156111e9576111e8611192565b5b80604052505050565b60006111fc610bdb565b905061120882826111c1565b919050565b600067ffffffffffffffff82111561122857611227611192565b5b61123182610cd9565b9050602081019050919050565b82818337600083830152505050565b600061126061125b8461120d565b6111f2565b90508281526020810184848401111561127c5761127b61118d565b5b61128784828561123e565b509392505050565b600082601f8301126112a4576112a3611188565b5b81356112b484826020860161124d565b91505092915050565b60008060008060008060c087890312156112da576112d9610be5565b5b60006112e889828a01611173565b965050602087013567ffffffffffffffff81111561130957611308610bea565b5b61131589828a0161128f565b955050604087013567ffffffffffffffff81111561133657611335610bea565b5b61134289828a0161128f565b945050606061135389828a01610c10565b935050608061136489828a01610c10565b92505060a087013567ffffffffffffffff81111561138557611384610bea565b5b61139189828a0161128f565b9150509295509295509295565b600082825260208201905092915050565b60006113ba82610e65565b6113c4818561139e565b93506113cf83610e81565b8060005b838110156114005781516113e78882610e91565b97506113f283610ea9565b9250506001810190506113d3565b5085935050505092915050565b600082825260208201905092915050565b600061142982610f14565b611433818561140d565b935061143e83610f30565b8060005b8381101561146f5781516114568882610f40565b975061146183610f58565b925050600181019050611442565b5085935050505092915050565b6000604082019050818103600083015261149681856113af565b905081810360208301526114aa818461141e565b90509392505050565b7f4e487b7100000000000000000000000000000000000000000000000000000000600052602260045260246000fd5b600060028204905060018216806114fa57607f821691505b60208210810361150d5761150c6114b3565b5b50919050565b600081905092915050565b50565b600061152e600083611513565b91506115398261151e565b600082019050919050565b600061154f82611521565b9150819050919050565b7f5472616e73666572206f662066756e6473206661696c65640000000000000000600082015250565b600061158f601883610c9e565b915061159a82611559565b602082019050919050565b600060208201905081810360008301526115be81611582565b9050919050565b7f4e487b7100000000000000000000000000000000000000000000000000000000600052601160045260246000fd5b60006115ff82610bef565b915061160a83610bef565b9250828201905080821115611622576116216115c5565b5b92915050565b7f5472616e73666572206661696c65640000000000000000000000000000000000600082015250565b600061165e600f83610c9e565b915061166982611628565b602082019050919050565b6000602082019050818103600083015261168d81611651565b9050919050565b7f4e487b7100000000000000000000000000000000000000000000000000000000600052603260045260246000fd5b60006116ce82610bef565b91507fffffffffffffffffffffffffffffffffffffffffffffffffffffffffffffffff8203611700576116ff6115c5565b5b600182019050919050565b7f54686520646561646c696e652073686f756c662062652061206461746520696e60008201527f2074686520667574757265210000000000000000000000000000000000000000602082015250565b6000611767602c83610c9e565b91506117728261170b565b604082019050919050565b600060208201905081810360008301526117968161175a565b9050919050565b60008190508160005260206000209050919050565b60006020601f8301049050919050565b600082821b905092915050565b6000600883026117ff7fffffffffffffffffffffffffffffffffffffffffffffffffffffffffffffffff826117c2565b61180986836117c2565b95508019841693508086168417925050509392505050565b6000819050919050565b600061184661184161183c84610bef565b611821565b610bef565b9050919050565b6000819050919050565b6118608361182b565b61187461186c8261184d565b8484546117cf565b825550505050565b600090565b61188961187c565b611894818484611857565b505050565b5b818110156118b8576118ad600082611881565b60018101905061189a565b5050565b601f8211156118fd576118ce8161179d565b6118d7846117b2565b810160208510156118e6578190505b6118fa6118f2856117b2565b830182611899565b50505b505050565b600082821c905092915050565b600061192060001984600802611902565b1980831691505092915050565b6000611939838361190f565b9150826002028217905092915050565b61195282610c93565b67ffffffffffffffff81111561196b5761196a611192565b5b61197582546114e2565b6119808282856118bc565b600060209050601f8311600181146119b357600084156119a1578287015190505b6119ab858261192d565b865550611a13565b601f1984166119c18661179d565b60005b828110156119e9578489015182556001820191506020850194506020810190506119c4565b86831015611a065784890151611a02601f89168261190f565b8355505b6001600288020188555050505b505050505050565b6000611a2682610bef565b9150611a3183610bef565b9250828203905081811115611a4957611a486115c5565b5b9291505056fea26469706673582212201dded2854e88cf8dceb4371fe171de132f524b95bb781ae6941edd8516517e5364736f6c63430008130033",
  "linkReferences": {},
  "deployedLinkReferences": {}
}